:020000040800F2
:1000000000000420F5020008FB020008FF020008BF
:10001000170300081B03000833030008000000005A
:100020000000000000000000000000004B0300087A
:100030004F030008000000005303000857030008A6
:1000400065030008650300086503000865030008F0
:1000500065030008650300086503000865030008E0
:1000600065030008650300086503000865030008D0
:1000700065030008650300086503000865030008C0
:1000800065030008650300086503000865030008B0
:1000900065030008650300086503000865030008A0
:1000A0006503000865030008650300086503000890
:1000B0006503000865030008650300086503000880
:1000C0006503000865030008650300086503000870
:1000D0006503000865030008650300086503000860
:1000E0006503000865030008650300086503000850
:1000F0006503000865030008650300086503000840
:10010000000000006503000865030008650300089F
:1001100000000000000000006503000865030008FF
:10012000650300086503000865030008650300080F
:1001300065030008650300086503000865030008FF
:1001400065030008650300086503000865030008EF
:1001500065030008650300086503000865030008DF
:1001600065030008650300080000000000000000AF
:10017000000000000000000000000000000000007F
:10018000650300086503000800000000000000008F
:10019000650300086503000800000000000000007F
:1001A000000000000000000000000000000000004F
:1001B000650300080000000000000000650300085F
:1001C0006503000800B583B001F064FA384B394A82
:1001D0001360394A1360394900E02146384B99428F
:1001E0000BD20A684B6801F10C0488689842F4D974
:1001F0001168196004330432F8E72E4B1A68314B4A
:100200009A4200D0FEE72C4B1A682F4B9A42F9D144
:10021000274B2E4A13602E4A13602E4B05E0002018
:10022000106004329342FAD80B462B4A934204D210
:10023000194651F8082B5B68F4E7244B1B6813B987
:10024000234B1B6803B1FEE701F0EEFA694601A8F3
:1002500001F014FA214C224BE41AA4100025AC4200
:1002600014DC204C204BE41AA4100025AC4213DC13
:100270000099019801F070FB05461C4C1C4BE41AD8
:10028000A410002C0EDC284601F0F2F9144B53F8B0
:10029000253098470135E2E7134B53F8253098474E
:1002A0000135E3E7013C124B53F824309847E8E767
:1002B000BABADECA0000002010000020680300085F
:1002C00080030008785634123254769814000020C7
:1002D00074000020800300089003000890030008C9
:1002E00090030008900300089003000890030008A2
:1002F0009003000808B5FFF765FF00BEFEE71EF09B
:10030000040F0CBFEFF30880EFF309807146124A27
:10031000104700BEFEE700BEFEE71EF0040F0CBF54
:10032000EFF30880EFF3098071460C4A104700BED6
:10033000FEE71EF0040F0CBFEFF30880EFF3098017
:100340007146074A104700BEFEE700BEFEE700BE4A
:10035000FEE700BEFEE77047130300082F03000806
:080360004703000800BEFEE7A0
:10036800EC1A00080000002014000020EC1A000815
:100378000000001000000010140000207800002089
:0803880000000010000000104D
:1003900010B50446074B1868074BA3FB00308009D3
:1003A00000F090F8002221464FF0FF3000F044F8B2
:1003B000002010BD0C000020D34D621008B50B4B7F
:1003C0001A6842F400721A601A6842F480621A6075
:1003D0001A6842F480721A60032000F00FF80F20B0
:1003E000FFF7D6FF01F0FEFA002008BD003C0240F6
:1003F000014B1868704700BF1C00002010B5044670
:10040000C31E042B0FD80A4AD36823F4E0631B04ED
:100410001B0C240204F4E064234343F0BF6343F461
:100420000033D36010BDA421024801F02FF9EAE7A0
:1004300000ED00E0F819000870B505460C461646B8
:100440000F2A25D80F2C28D81B4BDB68C3F30223B7
:10045000C3F10702042A28BF0422191D062921D945
:10046000033B4FF0FF3101FA02F224EA02049C4000
:1004700001FA03F326EA03063443002D14DB2401BA
:10048000E4B205F1604505F5614585F8004370BDAE
:10049000BC210A4801F0FAF8D4E7BD21074801F071
:1004A000F5F8D1E70023DCE705F00F052401E4B2FD
:1004B000034B5C55EBE700BF00ED00E0F8190008C6
:1004C00014ED00E00138B0F1807F0AD2064B58608D
:1004D000064AF02182F823100020986007221A6053
:1004E00070470120704700BF10E000E000ED00E021
:1004F00010B50446042800D038B9042C0BD0094AA2
:10050000136823F00403136010BD40F2B3110648D2
:1005100001F0BCF8F1E7034A136843F004031360E9
:10052000F2E700BF10E000E0F81900082DE9F047FD
:1005300082B080460E46A54B98421FD003F58063DB
:1005400098421BD003F58063984217D003F580636F
:10055000984213D003F5806398420FD003F580636F
:1005600098420BD003F58063984207D003F580636F
:10057000984203D0C521964801F088F8338833B3F8
:100580007368012B1ED9112B1CD0022B1AD0122BF1
:1005900018D0904A934215D002F58012934211D0A0
:1005A00002F5801293420DD0A2F5F812934209D0C1
:1005B00002F58012934205D002F58012934201D0D9
:1005C000032B09D1B368022B0BD800244AE0C621C3
:1005D0007F4801F05BF8D3E7C7217D4801F056F86A
:1005E000F0E7C8217A4801F051F8EEE7EC217848AD
:1005F00001F04CF881E0062300E000238B40034328
:100600000232754941F82230744B1A68FB4303EA01
:100610000201706810F4803F01D047EA02016F4A7E
:100620001160526803EA0201706810F4003F01D0C3
:1006300047EA0201694A5160926803EA0201706860
:1006400010F4801F01D047EA0201644A9160D26829
:100650001340716811F4001F01D047EA02035F4A9A
:10066000D36001340F2C00F2AD800125A54037681E
:100670002F40BD42F5D17368022B01D0122B1CD143
:1006800033690F2B05D80B2B03D00E2B01D00D2B6C
:1006900003D1D9214E4800F0F9FFE208083258F89A
:1006A000220004F0070399000F238B4020EA030087
:1006B00033698B40034348F82230D8F800204FEAD2
:1006C000440A4FF0030909FA0AF96FEA090909EA2D
:1006D0000202736803F0030303FA0AF31343C8F832
:1006E000003073685A1E012A03D9112B01D0122B36
:1006F00018D1F368032B3FF679AFD8F8082009EA40
:100700000202F36803FA0AF31343C8F80830D8F872
:10071000042022EA05027368C3F30015A5401543BF
:10072000C8F80450D8F80C3009EA0309B36803FA92
:100730000AF343EA0903C8F80C30736813F0805FCA
:100740008FD000230193264B5A6C42F480425A64A6
:100750005B6C03F480430193019BA208911C1E4B28
:1007600053F8210004F0030399000F238B4020EA83
:100770000300164B98453FF440AF03F5806398455E
:1007800016D003F58063984514D003F5806398452F
:1007900012D003F58063984510D003F58063984527
:1007A0000ED003F5806398453FF425AF082325E775
:1007B000012323E7022321E703231FE704231DE787
:1007C00005231BE702B0BDE8F08700BF0000024030
:1007D0002C1A00080000111000380140003C0140B4
:1007E0000038024070B5064615460C4629B1012D69
:1007F00009D875B92404B46170BD40F2B11106483E
:1008000000F044FFF3E74FF4D971034800F03EFFD6
:10081000EFE7B461F0E700BF2C1A000830B583B0F1
:10082000044603680F2B29D8236813F0010F3DD02D
:100830006368012B01D9052B25D1A34B9B6803F0DD
:100840000C03042B29D0A04B9B6803F00C03082B4E
:100850001ED022799D4B1A706368002B50D0FFF791
:10086000C7FD0546984B1B6813F4003F1ED1FFF7E8
:10087000BFFD401B6428F5D90320E3E1F52194482E
:1008800000F004FFD0E7FA21914800F0FFFED4E722
:100890008D4B5B6813F4800FDBD08B4B1B6813F41C
:1008A000003F03D06368002B00F0C981236813F078
:1008B000020F5DD0E368012B31D823691F2B34D898
:1008C000814B9B6813F00C0F3AD07F4B9B6803F071
:1008D0000C03082B2FD0E368002B74D07D4B012232
:1008E0001A60FFF785FD0546774B1B6813F0020F72
:1008F0005AD1FFF77DFD401B0228F5D90320A1E165
:10090000FFF776FD0546704B1B6813F4003FCDD012
:10091000FFF76EFD401B6428F5D9032092E14FF4E8
:1009200096716B4800F0B2FEC7E740F22D1168489F
:1009300000F0ACFEC4E7644B5B6813F4800FCAD1CF
:10094000614B1B6813F0020F04D0E368012B01D048
:10095000012077E15C48036823F0F8032169F8225D
:1009600092FAA2F2B2FA82F201FA02F2134303609F
:10097000236813F0080F50D06369012B35D86369E1
:10098000002B38D0544B01221A60FFF731FD054689
:100990004D4B5B6F13F0020F3FD1FFF729FD401B5A
:1009A0000228F5D903204DE14748036823F0F803F6
:1009B0002169F82292FAA2F2B2FA82F201FA02F264
:1009C00013430360D4E7434B00221A60FFF710FD86
:1009D00005463D4B1B6813F0020FC9D0FFF708FD19
:1009E000401B0228F5D903202CE140F26D11384854
:1009F00000F04CFEC3E7384B00221A60FFF7F8FC0A
:100A00000546314B5B6F13F0020F06D0FFF7F0FC89
:100A1000401B0228F5D9032014E1236813F0040FCA
:100A200060D0A368012B01D9052B1FD100230193AE
:100A3000254B1A6C42F080521A641B6C03F08053F1
:100A40000193019B254A136843F480731360FFF7F9
:100A5000CFFC0546214B1B6813F4807F0CD1FFF7B8
:100A6000C7FC401B0228F5D90320EBE040F29711A8
:100A7000174800F00BFED9E7227A194B1A70A368C9
:100A800083B1FFF7B5FC05460F4B1B6F13F0020F48
:100A900028D1FFF7ADFC401B41F288339842F3D9CF
:100AA0000320CFE0FFF7A4FC0546074B1B6F13F0B4
:100AB000020F17D0FFF79CFC401B41F2883398428D
:100AC000F3D90320BEE000BF0038024002380240E4
:100AD0006C1A000800004742800E47420070004038
:100AE00070380240A369022B39D8A369002B00F0AB
:100AF000A880564A926802F00C02082A00F0A480EE
:100B0000022B40F08880E36913B1B3F5800F2CD13C
:100B1000236A3F2B2FD8636A323BB3F5BF7F30D8AF
:100B2000A36A022B05D0042B03D0062B01D0082B7F
:100B30002DD1E36A043B0B2B2FD8454B00221A60C2
:100B4000FFF756FC0546414B1B6813F0007F2AD087
:100B5000FFF74EFC401B0228F5D9032072E04FF44A
:100B6000E6713C4800F092FDBFE740F2D5113948EC
:100B700000F08CFDCCE74FF4EB71364800F086FDB9
:100B8000C9E740F2D711334800F080FDC8E74FF4C1
:100B9000EC71304800F07AFDCBE740F2D9112D48D6
:100BA00000F074FDC9E7E369226A1343616A47F6FE
:100BB000C07292FAA2F2B2FA82F201FA02F213437E
:100BC000A26A5208013A4FF4403191FAA1F1B1FA08
:100BD00081F18A401343E16A4FF0706292FAA2F207
:100BE000B2FA82F201FA02F21343184A5360184B28
:100BF00001221A60FFF7FCFB0446144B1B6813F03C
:100C0000007F06D1FFF7F4FB001B0228F5D9032073
:100C100018E0002016E00E4B00221A60FFF7E8FBF8
:100C200004460A4B1B6813F0007F06D0FFF7E0FB79
:100C3000001B0228F5D9032004E0002002E0012077
:100C400000E0002003B030BD0120FBE70038024087
:100C5000600047426C1A0008214B9B6803F00C03AC
:100C6000042B3AD0082B01D01E4870471C4B586803
:100C700000F03F005B6813F4800F1ED01A4AB2FBED
:100C8000F0F2174B586847F6C073184093FAA3F375
:100C9000B3FA83F3D84000FB02F0114B5B6803F416
:100CA00040334FF4403292FAA2F2B2FA82F2D340C9
:100CB00001335B00B0FBF3F070470A4AB2FBF0F27D
:100CC000074B586847F6C073184093FAA3F3B3FA7A
:100CD00083F3D84000FB02F0DFE70348704700BF12
:100CE000003802400024F40000127A0070B5044677
:100CF0000D460368013B0E2B11D8072D15D88C4BE0
:100D00001B6803F00F03AB4215D2EBB2884A137095
:100D1000136803F00F03AB420DD0012070BD40F209
:100D20003721844800F0B2FCE7E74FF40E718148A8
:100D300000F0ACFCE3E7236813F0020F18D0A368BF
:100D40007BB1802B0DD0902B0BD0A02B09D0B02BDA
:100D500007D0C02B05D0D02B03D0E02B01D0F02B37
:100D600037D1754A936823F0F003A1680B43936071
:100D7000236813F0010F73D06368032B2FD86368C7
:100D8000012B32D09A1E012A36D96B4A126812F012
:100D9000020F00F0CA8068498A6822F003021343F8
:100DA0008B60FFF725FB06466368012B2BD0022BD7
:100DB00038D0032B45D0604B9B6813F00C0F4FD0FD
:100DC000FFF716FB801B41F288339842F3D90320CA
:100DD000A4E740F24F21574800F058FCC1E740F229
:100DE0005621544800F052FCC9E7534A126812F4E5
:100DF000003FD0D1012091E74F4A126812F0007FE6
:100E0000C9D101208AE74C4B9B6803F00C03042BEB
:100E100026D0FFF7EDFA801B41F288339842F2D9D1
:100E200003207BE7444B9B6803F00C03082B17D08F
:100E3000FFF7DEFA801B41F288339842F2D9032093
:100E40006CE73D4B9B6803F00C030C2B08D0FFF7BD
:100E5000CFFA801B41F288339842F2D903205DE734
:100E6000334B1B6803F00F03AB4209D9EAB2304B96
:100E70001A701B6803F00F03AB4201D001204DE74D
:100E8000236813F0040F14D0E3685BB1B3F5805FFF
:100E900008D0B3F5A05F05D0B3F5C05F02D0B3F5BD
:100EA000E05F36D1244A936823F4E053E1680B43B2
:100EB0009360236813F0080F15D023695BB1B3F575
:100EC000805F08D0B3F5A05F05D0B3F5C05F02D056
:100ED000B3F5E05F23D1184A936823F46043216996
:100EE00043EAC1039360FFF7B7FE134B9B6803F01F
:100EF000F003F02292FAA2F2B2FA82F2D3400F4A41
:100F0000D35CD8400E4B18600F20FFF741FA002049
:100F100004E74FF42D71074800F0B8FBC2E740F238
:100F2000BB21044800F0B2FBD5E70120F6E600BF84
:100F3000003C02406C1A0008003802405C1A0008AD
:100F40000C000020014B1868704700BF0C00002007
:100F500008B5FFF7F7FF074B9B6803F4E0534FF426
:100F6000E05292FAA2F2B2FA82F2D340024AD35C81
:100F7000D84008BD003802405C1A000808B5FFF7E9
:100F8000E1FF074B9B6803F460434FF4604292FA21
:100F9000A2F2B2FA82F2D340024AD35CD84008BD32
:100FA000003802405C1A00082DE9F8430446426804
:100FB000B44B9A4200F29C80E3681BB1B3F5005F2A
:100FC00040F09C80236933B1B3F5806F03D0B3F553
:100FD000C06F40F0998063694FF6F372134200D1FD
:100FE00023B940F25271A84800F050FB21680A6909
:100FF00022F44052E36813430B612168CA6822F46B
:10100000164222F00C02A36820690343606903437F
:10101000E06903431343CB6021684A6922F44072BC
:10102000A36913434B61E369B3F5004F72D02368A2
:10103000964A934200F02E8102F58062934200F0BE
:101040002981FFF785FF00EB800000EB80006568D9
:10105000AD00B0FBF5F58E4FA7FB05356D092E01F0
:10106000FFF776FF00EB800000EB80006568AD00C5
:10107000B0FBF5F9FFF76CFF00EB800000EB8000A0
:101080006568AD00B0FBF5F5A7FB05356D094FF0C0
:10109000640808FB15952D013235A7FB05356D0950
:1010A00005F0F0053544FFF753FF00EB800000EB3F
:1010B00080006668B600B0FBF6F6FFF749FF00EB6C
:1010C000800000EB800063689B00B0FBF3F0A7FB9F
:1010D0000030400908FB10684FEA081808F1320890
:1010E000A7FB0837C7F3431723682F449F6027E106
:1010F00040F24F71644800F0C9FA5DE74FF4EA61CD
:10110000614800F0C3FA5DE740F251715E4800F0BB
:10111000BDFA60E723685D4A93425BD002F58062C6
:10112000934257D0FFF714FF00EB800000EB8000E4
:1011300065686D00B0FBF5F5554FA7FB05356D09EA
:101140002E01FFF705FF00EB800000EB80006568D3
:101150006D00B0FBF5F9FFF7FBFE00EB800000EB44
:10116000800065686D00B0FBF5F5A7FB05356D09DE
:101170004FF0640808FB1595ED003235A7FB0535E7
:101180006D096D0005F4F8753544FFF7E1FE00EBDD
:10119000800000EB800066687600B0FBF6F6FFF793
:1011A000D7FE00EB800000EB800063685B00B0FBC3
:1011B000F3F3A7FB03235B0908FB13684FEAC80896
:1011C00008F13208A7FB0837C7F3421723682F44FA
:1011D0009F60B5E0FFF7D2FE00EB800000EB8000DF
:1011E00065686D00B0FBF5F5294FA7FB05356D0966
:1011F0002E01FFF7C3FE00EB800000EB8000656866
:101200006D00B0FBF5F9FFF7B9FE00EB800000EBD5
:10121000800065686D00B0FBF5F5A7FB05356D092D
:101220004FF0640808FB1595ED003235A7FB053536
:101230006D096D0005F4F8753544FFF79FFE00EB6E
:10124000800000EB800066687600B0FBF6F6FFF7E2
:1012500095FE00EB800000EB800063685B00B0FB54
:10126000F3F3A7FB03235B0908FB13684FEAC808E5
:1012700008F13208A7FB0837C7F3421723682F4449
:101280009F605DE0A037A0009C1A0008001001409C
:101290001F85EB51FFF772FE00EB800000EB800032
:1012A0006568AD00B0FBF5F5264FA7FB05356D0968
:1012B0002E01FFF763FE00EB800000EB8000656805
:1012C000AD00B0FBF5F9FFF759FE00EB800000EB35
:1012D00080006568AD00B0FBF5F5A7FB05356D092D
:1012E0004FF0640808FB15952D013235A7FB053535
:1012F0006D0905F0F0053544FFF740FE00EB800076
:1013000000EB80006668B600B0FBF6F6FFF736FE2D
:1013100000EB800000EB800063689B00B0FBF3F003
:10132000A7FB0030400908FB10684FEA081808F1D5
:101330003208A7FB0837C7F3431723682F449F6081
:10134000BDE8F8831F85EB512DE9F04105460F46B6
:1013500016469846069C2B681B6837EA03030CBFA9
:1013600001230023B3421DD1B4F1FF3FF3D02CB1D0
:10137000FFF73EF8A0EB0800A042ECD92A68D3683A
:1013800023F4D073D3602A68536923F001035361B7
:10139000202385F8393085F83A30002385F8383035
:1013A000032000E00020BDE8F081000000287DD08F
:1013B00010B5044683691BB303683D4A93420FD0BE
:1013C000A2F54C4293420BD002F58062934207D0C3
:1013D00002F54C42934203D0FE21364800F056F904
:1013E000A36913B3B3F5807F1FD0B3F5007F1CD082
:1013F000B3F5407F19D0FF212E4800F047F914E0E3
:1014000003682B4A934210D0A2F54C4293420CD071
:1014100002F58062934208D002F54C42934204D018
:1014200040F20311234800F031F9A36813B1B3F57A
:10143000805F29D1E36913B1B3F5004F2AD194F845
:1014400039306BB3242384F839302268D36823F40D
:101450000053D3602046FFF7A7FD2268136923F4E9
:10146000904313612268536923F02A035361226871
:10147000D36843F40053D3600020E063202384F852
:10148000393084F83A3010BD40F20511094800F0B7
:10149000FDF8CFE74FF48371064800F0F7F8CEE788
:1014A00084F83830204600F00FFACBE7012070476F
:1014B000001001409C1A00082DE9F04182B01E4640
:1014C00090F83930DBB2202B52D104460D469046BD
:1014D000002952D0002A52D090F83830012B50D039
:1014E000012380F838300023C363212380F839308A
:1014F000FEF77EFF0746A4F82480A4F8268010E0BB
:1015000000963B46002280212046FFF71DFF002861
:1015100039D12B882268C3F3080353602369ABB920
:101520000235E38CA3B1013BE384A368B3F5805F8C
:10153000E6D000963B46002280212046FFF704FFBC
:1015400018BB2A7823685A600135EAE70135E8E7D5
:1015500000963B46002240212046FFF7F5FE034659
:10156000A8B9202284F83920002284F8382000E02D
:101570000223184602B0BDE8F0810123F9E70123F8
:10158000F7E70223F5E70323F3E70323F1E7032358
:10159000EFE72DE9F04182B01E4690F83A30DBB219
:1015A000202B57D104460D469046002956D0002ADC
:1015B00056D090F83830012B54D0012380F83830C1
:1015C0000023C363222380F83A30FEF711FF074659
:1015D000A4F82C80A4F82E801DE000963B46002243
:1015E00020212046FFF7B0FE00283DD1236933B902
:1015F00023685B68C3F3080325F8023B0BE023680C
:101600005B68DBB225F8013B05E023685B6803F00B
:101610007F032B700135E38DABB1013BE385A368FC
:10162000B3F5805FD9D000963B46002220212046AA
:10163000FFF78AFED0B92369002BE6D123685B68E7
:101640002B700135E7E7202384F83A30002084F836
:10165000380000E0022002B0BDE8F0810120FAE786
:101660000120F8E70220F6E70320F4E70320F2E781
:10167000FEE708B50120FFF7FBFF00000123036030
:10168000014B0B60704700BF0400002008B5FFF756
:10169000F0FF000008B500F009F8024A024B9A601A
:1016A00008BD00BF0000000800ED00E00C4B1A6808
:1016B00042F001021A60002199601A6822F08472D7
:1016C00022F480321A60074A5A601A6822F4802293
:1016D0001A60D960044B4FF000629A60704700BFF7
:1016E000003802401030002400ED00E0224B9B68DF
:1016F00003F00C03042B14D0082B16D01BB11F4B86
:101700001F4A1A6002E01D4B1D4A1A601A4B9B6863
:10171000C3F303131B4AD15C184A1368CB40136010
:101720007047164B184A1A60F0E7134B5A685B680B
:1017300003F03F0312F4800F13D0134AB2FBF3F20D
:101740000D4B5B68C3F3881303FB02F30A4A52682C
:10175000C2F3014201325200B3FBF2F3074A1360B5
:10176000D4E7074AB2FBF3F2034B5B68C3F3881379
:1017700003FB02F3EAE700BF003802400C00002040
:101780000024F400CC1A000800127A0070B594B05E
:1017900000240094214B1A6C42F080521A641B6C96
:1017A00003F080530093009B01941D4B1A6842F490
:1017B00040421A601B6803F440430193019B0123DC
:1017C000079308934FF480030E9308230F934FF46D
:1017D000A8731093042511950723129302260D96E2
:1017E00007A8FFF71BF80F230293039604944FF406
:1017F000A05305934FF480530693052102A8FFF7E9
:1018000075FAFFF79FFB074BA3FB00308009FEF73B
:1018100059FE2846FEF76CFE14B070BD0038024039
:1018200000700040D34D621008B5FEF7C7FDFFF70A
:10183000ADFFFFF75BFF08BD00B583B00023019348
:101840000D4A116C41F480211164126C02F4802263
:101850000192019A09480A4A02604FF41652426006
:101860008360C3600C22426103618361C361FFF73F
:101870009DFD03B05DF804FB00380240200000200D
:101880000048004000B583B0002301930B4B1A6B56
:1018900042F002021A631B6B03F002030193019BE7
:1018A000074944F281030B6001234B608B60CB60DE
:1018B0000448FEF73BFE03B05DF804FB003802402D
:1018C000600000200004024000B583B000230193B3
:1018D0000D4B1A6B42F008021A631B6B03F00803EE
:1018E0000193019B09494FF440730B6002234B6045
:1018F00001238B60CB6007230B610548FEF716FEC2
:1019000003B05DF804FB00BF003802406000002017
:10191000000C024010B5064C204600F064F84FF071
:10192000FF3382B221460348FFF7C6FD10BD00BF5A
:10193000DC1A00082000002000B583B04FF0FF3310
:10194000012201A90348FFF724FE9DF9040003B01A
:101950005DF804FB2000002010B5FFF76DFFFFF7D6
:10196000D9FFFFF78FFF22E01D4C00220121204606
:10197000FEF738FF002280212046FEF733FF0122C8
:101980004FF480412046FEF72DFF10E0144C00225A
:101990004FF480412046FEF725FF0022802120469B
:1019A000FEF720FF012211462046FEF71BFFFFF73E
:1019B000C3FF7228D8D06728E8D0094C00224FF422
:1019C00080412046FEF70EFF002201212046FEF74F
:1019D00009FF012280212046FEF704FFE7E700BF50
:1019E000000402407047034613F8012B002AFBD184
:1019F000181A0138704700002E2E2F737973746502
:101A00006D2F7372632F73746D333266342D68617A
:101A10006C2F73746D3332663478785F68616C5FF5
:101A2000636F727465782E63000000002E2E2F7392
:101A3000797374656D2F7372632F73746D333266AF
:101A4000342D68616C2F73746D3332663478785F2F
:101A500068616C5F6770696F2E63000000000000B2
:101A60000102030401020304060708092E2E2F7346
:101A7000797374656D2F7372632F73746D3332666F
:101A8000342D68616C2F73746D3332663478785FEF
:101A900068616C5F7263632E630000002E2E2F73EB
:101AA000797374656D2F7372632F73746D3332663F
:101AB000342D68616C2F73746D3332663478785FBF
:101AC00068616C5F756172742E6300000000000035
:101AD00000000000010203040607080948656C6C59
:0C1AE0006F20776F726C64200A00000019
:101AEC007856341218000020000000000024F40086
:041AFC003254769852
:04000005080001C529
:00000001FF
